:100000000C942A001895000018950000189500001F
:10001000189500001895000018950000189500002C
:10002000189500001895000018950000189500001C
:10003000189500001895000018950000189500000C
:1000400018950000189500001895000018950000FC
:10005000189500008FE58DBFC8E3E0E24E2E84E0E6
:100060008EBFD4E0F4E05F2EA89584B7082E877F7A
:1000700084BF88E1992781BD91BDEEEFF3E0A0E652
:10008000B0E088278D933197E9F70E9498006624A5
:100090008FEF84BB889A899A8CE00E94B600A0E614
:1000A000B0E0ECEBF1E00E94D4000E9490008CE202
:1000B00091E00E94C500A0E6B0E00E948A008CE2B8
:1000C00091E00E94C50080E090E0ADE7B0E08D9344
:1000D0009C9388E10E94B60082E390E00E94C500F4
:1000E000ADE7B0E00D911C910F5F1F4FADE7B0E0A1
:1000F0000D931C93ADE7B0E00D911C910C3150E0D5
:10010000150711F00C9469000C945500F894FFCF7A
:10011000A8E0B4E08D91882311F01AD0FBCF0895A8
:1001200081E024D002D080E821C083E099272DC04F
:100130008AEF90E00E94C5008FEF84BB899A889A6D
:1001400088E314D013D08EE011D086E00FD008954C
:10015000909A85BB919AEF93FF93E0E6F0E00E94BE
:10016000B900FF91EF9191980DD008959098F1CF3B
:1001700008953197F1F70895689462F80895E89426
:1001800062F8089581E090E000C0EF93FF93EE27BE
:10019000E82BE92B31F0E8EEF3E03197F1F7019726
:1001A000D1F7FF91EF9108950E94DA000D9200209F
:1001B000D9F70895C8953196002008955468697359
:1001C0002069732061207465737420666F72204DFE
:0A01D0006963726F2D4C616200003C
:00000001FF
